{
  "address": "0x7b10706c8453D3552C3f532b1C1292813F26D191",
  "abi": [
    {
      "inputs": [
        {
          "internalType": "uint256",
          "name": "_lockTime",
          "type": "uint256"
        },
        {
          "internalType": "address",
          "name": "datafeedAddr",
          "type": "address"
        }
      ],
      "stateMutability": "nonpayable",
      "type": "constructor"
    },
    {
      "inputs": [],
      "name": "dataFeed",
      "outputs": [
        {
          "internalType": "contract AggregatorV3Interface",
          "name": "",
          "type": "address"
        }
      ],
      "stateMutability": "view",
      "type": "function"
    },
    {
      "inputs": [],
      "name": "fund",
      "outputs": [],
      "stateMutability": "payable",
      "type": "function"
    },
    {
      "inputs": [
        {
          "internalType": "address",
          "name": "",
          "type": "address"
        }
      ],
      "name": "funderToAmount",
      "outputs": [
        {
          "internalType": "uint256",
          "name": "",
          "type": "uint256"
        }
      ],
      "stateMutability": "view",
      "type": "function"
    },
    {
      "inputs": [],
      "name": "getChainlinkDataFeedLatestAnswer",
      "outputs": [
        {
          "internalType": "int256",
          "name": "",
          "type": "int256"
        }
      ],
      "stateMutability": "view",
      "type": "function"
    },
    {
      "inputs": [],
      "name": "getFund",
      "outputs": [],
      "stateMutability": "nonpayable",
      "type": "function"
    },
    {
      "inputs": [],
      "name": "owner",
      "outputs": [
        {
          "internalType": "address",
          "name": "",
          "type": "address"
        }
      ],
      "stateMutability": "view",
      "type": "function"
    },
    {
      "inputs": [],
      "name": "reFund",
      "outputs": [],
      "stateMutability": "nonpayable",
      "type": "function"
    },
    {
      "inputs": [
        {
          "internalType": "address",
          "name": "newOwner",
          "type": "address"
        }
      ],
      "name": "transferOwnership",
      "outputs": [],
      "stateMutability": "nonpayable",
      "type": "function"
    }
  ],
  "transactionHash": "0xee7f8393cc96201361a8b8e4529ca6963b927fe39d391562c288662ce6a9d00a",
  "args": [
    180,
    "0x694AA1769357215DE4FAC081bf1f309aDC325306"
  ],
  "numDeployments": 1,
  "solcInputHash": "57585cfc907dfb312c64cb965a153e62",
  "bytecode": "0x608060405234801561001057600080fd5b5060405161120938038061120983398181016040528101906100329190610162565b80600160006101000a81548173ffffffffffffffffffffffffffffffffffffffff021916908373ffffffffffffffffffffffffffffffffffffffff16021790555033600260006101000a81548173ffffffffffffffffffffffffffffffffffffffff021916908373ffffffffffffffffffffffffffffffffffffffff160217905550426003819055508160048190555050506101a2565b600080fd5b6000819050919050565b6100e1816100ce565b81146100ec57600080fd5b50565b6000815190506100fe816100d8565b92915050565b600073ffffffffffffffffffffffffffffffffffffffff82169050919050565b600061012f82610104565b9050919050565b61013f81610124565b811461014a57600080fd5b50565b60008151905061015c81610136565b92915050565b60008060408385031215610179576101786100c9565b5b6000610187858286016100ef565b92505060206101988582860161014d565b9150509250929050565b611058806101b16000396000f3fe60806040526004361061007b5760003560e01c80639e42ff901161004e5780639e42ff9014610116578063b60d428814610141578063bea4dfb51461014b578063f2fde38b146101765761007b565b80630ff0a4df146100805780634407e1e8146100975780638da5cb5b146100d45780638edd6eb6146100ff575b600080fd5b34801561008c57600080fd5b5061009561019f565b005b3480156100a357600080fd5b506100be60048036038101906100b991906108f2565b6103f7565b6040516100cb9190610938565b60405180910390f35b3480156100e057600080fd5b506100e961040f565b6040516100f69190610962565b60405180910390f35b34801561010b57600080fd5b50610114610435565b005b34801561012257600080fd5b5061012b6105db565b60405161013891906109dc565b60405180910390f35b610149610601565b005b34801561015757600080fd5b506101606106ea565b60405161016d9190610a10565b60405180910390f35b34801561018257600080fd5b5061019d600480360381019061019891906108f2565b61078b565b005b6004546003546101af9190610a5a565b4210156101f1576040517f08c379a00000000000000000000000000000000000000000000000000000000081526004016101e890610aeb565b60405180910390fd5b671bc16d674ec800006102034761085f565b10610243576040517f08c379a000000000000000000000000000000000000000000000000000000000815260040161023a90610b57565b60405180910390fd5b60008060003373ffffffffffffffffffffffffffffffffffffffff1673ffffffffffffffffffffffffffffffffffffffff16815260200190815260200160002054036102c4576040517f08c379a00000000000000000000000000000000000000000000000000000000081526004016102bb90610bc3565b60405180910390fd5b60003373ffffffffffffffffffffffffffffffffffffffff166000803373ffffffffffffffffffffffffffffffffffffffff1673ffffffffffffffffffffffffffffffffffffffff1681526020019081526020016000205460405161032890610c14565b60006040518083038185875af1925050503d8060008114610365576040519150601f19603f3d011682016040523d82523d6000602084013e61036a565b606091505b505080915050806103b0576040517f08c379a00000000000000000000000000000000000000000000000000000000081526004016103a790610c75565b60405180910390fd5b60008060003373ffffffffffffffffffffffffffffffffffffffff1673ffffffffffffffffffffffffffffffffffffffff1681526020019081526020016000208190555050565b60006020528060005260406000206000915090505481565b600260009054906101000a900473ffffffffffffffffffffffffffffffffffffffff1681565b6004546003546104459190610a5a565b421015610487576040517f08c379a000000000000000000000000000000000000000000000000000000000815260040161047e90610aeb565b60405180910390fd5b600260009054906101000a900473ffffffffffffffffffffffffffffffffffffffff1673ffffffffffffffffffffffffffffffffffffffff163373ffffffffffffffffffffffffffffffffffffffff1614610517576040517f08c379a000000000000000000000000000000000000000000000000000000000815260040161050e90610d07565b60405180910390fd5b671bc16d674ec800006105294761085f565b101561056a576040517f08c379a000000000000000000000000000000000000000000000000000000000815260040161056190610d73565b60405180910390fd5b60003373ffffffffffffffffffffffffffffffffffffffff164760405161059090610c14565b60006040518083038185875af1925050503d80600081146105cd576040519150601f19603f3d011682016040523d82523d6000602084013e6105d2565b606091505b50508091505050565b600160009054906101000a900473ffffffffffffffffffffffffffffffffffffffff1681565b670de0b6b3a76400006106133461085f565b1015610654576040517f08c379a000000000000000000000000000000000000000000000000000000000815260040161064b90610ddf565b60405180910390fd5b6004546003546106649190610a5a565b42106106a5576040517f08c379a000000000000000000000000000000000000000000000000000000000815260040161069c90610e4b565b60405180910390fd5b346000803373ffffffffffffffffffffffffffffffffffffffff1673ffffffffffffffffffffffffffffffffffffffff16815260200190815260200160002081905550565b600080600160009054906101000a900473ffffffffffffffffffffffffffffffffffffffff1673ffffffffffffffffffffffffffffffffffffffff1663feaf968c6040518163ffffffff1660e01b815260040160a060405180830381865afa15801561075a573d6000803e3d6000fd5b505050506040513d601f19601f8201168201806040525081019061077e9190610f05565b5050509150508091505090565b600260009054906101000a900473ffffffffffffffffffffffffffffffffffffffff1673ffffffffffffffffffffffffffffffffffffffff163373ffffffffffffffffffffffffffffffffffffffff161461081b576040517f08c379a000000000000000000000000000000000000000000000000000000000815260040161081290610d07565b60405180910390fd5b80600260006101000a81548173ffffffffffffffffffffffffffffffffffffffff021916908373ffffffffffffffffffffffffffffffffffffffff16021790555050565b60008061086a6106ea565b90506305f5e100818461087d9190610f80565b6108879190610ff1565b915050919050565b600080fd5b600073ffffffffffffffffffffffffffffffffffffffff82169050919050565b60006108bf82610894565b9050919050565b6108cf816108b4565b81146108da57600080fd5b50565b6000813590506108ec816108c6565b92915050565b6000602082840312156109085761090761088f565b5b6000610916848285016108dd565b91505092915050565b6000819050919050565b6109328161091f565b82525050565b600060208201905061094d6000830184610929565b92915050565b61095c816108b4565b82525050565b60006020820190506109776000830184610953565b92915050565b6000819050919050565b60006109a261099d61099884610894565b61097d565b610894565b9050919050565b60006109b482610987565b9050919050565b60006109c6826109a9565b9050919050565b6109d6816109bb565b82525050565b60006020820190506109f160008301846109cd565b92915050565b6000819050919050565b610a0a816109f7565b82525050565b6000602082019050610a256000830184610a01565b92915050565b7f4e487b7100000000000000000000000000000000000000000000000000000000600052601160045260246000fd5b6000610a658261091f565b9150610a708361091f565b9250828201905080821115610a8857610a87610a2b565b5b92915050565b600082825260208201905092915050565b7f77696e646f77206973206e6f7420636c6f736564000000000000000000000000600082015250565b6000610ad5601483610a8e565b9150610ae082610a9f565b602082019050919050565b60006020820190508181036000830152610b0481610ac8565b9050919050565b7f5461726765742069732072656163686564000000000000000000000000000000600082015250565b6000610b41601183610a8e565b9150610b4c82610b0b565b602082019050919050565b60006020820190508181036000830152610b7081610b34565b9050919050565b7f7468657265206973206e6f2066756e6420666f7220796f752000000000000000600082015250565b6000610bad601983610a8e565b9150610bb882610b77565b602082019050919050565b60006020820190508181036000830152610bdc81610ba0565b9050919050565b600081905092915050565b50565b6000610bfe600083610be3565b9150610c0982610bee565b600082019050919050565b6000610c1f82610bf1565b9150819050919050565b7f7472616e73666572207478206661696c65640000000000000000000000000000600082015250565b6000610c5f601283610a8e565b9150610c6a82610c29565b602082019050919050565b60006020820190508181036000830152610c8e81610c52565b9050919050565b7f746869732066756e6374696f6e2063616e206f6e6c792062652063616c6c656460008201527f206279206f776e65722000000000000000000000000000000000000000000000602082015250565b6000610cf1602a83610a8e565b9150610cfc82610c95565b604082019050919050565b60006020820190508181036000830152610d2081610ce4565b9050919050565b7f546172676574206973206e6f7420726561636865642100000000000000000000600082015250565b6000610d5d601683610a8e565b9150610d6882610d27565b602082019050919050565b60006020820190508181036000830152610d8c81610d50565b9050919050565b7f596f7520646f6e2774206861766520656e6f756768206d6f6e65790000000000600082015250565b6000610dc9601b83610a8e565b9150610dd482610d93565b602082019050919050565b60006020820190508181036000830152610df881610dbc565b9050919050565b7f77696e646f7720697320636c6f73656400000000000000000000000000000000600082015250565b6000610e35601083610a8e565b9150610e4082610dff565b602082019050919050565b60006020820190508181036000830152610e6481610e28565b9050919050565b600069ffffffffffffffffffff82169050919050565b610e8a81610e6b565b8114610e9557600080fd5b50565b600081519050610ea781610e81565b92915050565b610eb6816109f7565b8114610ec157600080fd5b50565b600081519050610ed381610ead565b92915050565b610ee28161091f565b8114610eed57600080fd5b50565b600081519050610eff81610ed9565b92915050565b600080600080600060a08688031215610f2157610f2061088f565b5b6000610f2f88828901610e98565b9550506020610f4088828901610ec4565b9450506040610f5188828901610ef0565b9350506060610f6288828901610ef0565b9250506080610f7388828901610e98565b9150509295509295909350565b6000610f8b8261091f565b9150610f968361091f565b9250828202610fa48161091f565b91508282048414831517610fbb57610fba610a2b565b5b5092915050565b7f4e487b7100000000000000000000000000000000000000000000000000000000600052601260045260246000fd5b6000610ffc8261091f565b91506110078361091f565b92508261101757611016610fc2565b5b82820490509291505056fea26469706673582212207fc3f42b865659177e59eda9281d33a06a25471edc2d9f4b6756c214c63a164c64736f6c634300081c0033",
  "devdoc": {
    "kind": "dev",
    "methods": {},
    "version": 1
  },
  "userdoc": {
    "kind": "user",
    "methods": {
      "getChainlinkDataFeedLatestAnswer()": {
        "notice": "Returns the latest answer."
      }
    },
    "version": 1
  },
  "storageLayout": {
    "storage": [
      {
        "astId": 53,
        "contract": "contracts/FundMe.sol:FundMe",
        "label": "funderToAmount",
        "offset": 0,
        "slot": "0",
        "type": "t_mapping(t_address,t_uint256)"
      },
      {
        "astId": 63,
        "contract": "contracts/FundMe.sol:FundMe",
        "label": "dataFeed",
        "offset": 0,
        "slot": "1",
        "type": "t_contract(AggregatorV3Interface)45"
      },
      {
        "astId": 72,
        "contract": "contracts/FundMe.sol:FundMe",
        "label": "owner",
        "offset": 0,
        "slot": "2",
        "type": "t_address"
      },
      {
        "astId": 74,
        "contract": "contracts/FundMe.sol:FundMe",
        "label": "deploymentTimestamp",
        "offset": 0,
        "slot": "3",
        "type": "t_uint256"
      },
      {
        "astId": 76,
        "contract": "contracts/FundMe.sol:FundMe",
        "label": "lockTime",
        "offset": 0,
        "slot": "4",
        "type": "t_uint256"
      }
    ],
    "types": {
      "t_address": {
        "encoding": "inplace",
        "label": "address",
        "numberOfBytes": "20"
      },
      "t_contract(AggregatorV3Interface)45": {
        "encoding": "inplace",
        "label": "contract AggregatorV3Interface",
        "numberOfBytes": "20"
      },
      "t_mapping(t_address,t_uint256)": {
        "encoding": "mapping",
        "key": "t_address",
        "label": "mapping(address => uint256)",
        "numberOfBytes": "32",
        "value": "t_uint256"
      },
      "t_uint256": {
        "encoding": "inplace",
        "label": "uint256",
        "numberOfBytes": "32"
      }
    }
  }
}